201907030060000200000000000000000038000000000000000000389600000000000036321716edulingeri00@gmail.com        000000000069899000000000000000000000000000000000000000000000000000000000000000000000000000000000000000000000000000000000PES00010000001000000000000000000000000
201907050060000200000000000000000039000000000000000000399600000000000039439912Valderas Jonathan Gabriel     000000000179900000000000000000000000000000000000000000000000000000000000000000000000000000000000000000000000000000000000PES00010000001000000000000000000000000
201907060060000200000000000000000040000000000000000000409600000000000032588519Cardelli Fabricio             000000000049000000000000000000000000000000000000000000000000000000000000000000000000000000000000000000000000000000000000PES00010000001000000000000000000000000
201907060060000200000000000000000041000000000000000000419600000000000031340058Collante Nadia                000000000099901000000000000000000000000000000000000000000000000000000000000000000000000000000000000000000000000000000000PES00010000001000000000000000000000000
201907060060000200000000000000000042000000000000000000429600000000000032954732Navarro Cristian              000000000229900000000000000000000000000000000000000000000000000000000000000000000000000000000000000000000000000000000000PES00010000001000000000000000000000000
201907060060000200000000000000000043000000000000000000439600000000000035888104Quiroga Renzo                 000000000239900000000000000000000000000000000000000000000000000000000000000000000000000000000000000000000000000000000000PES00010000001000000000000000000000000
201907060060000200000000000000000044000000000000000000449600000000000014956376Ramirez Dora Blanca           000000000399900000000000000000000000000000000000000000000000000000000000000000000000000000000000000000000000000000000000PES00010000001000000000000000000000000
201907060060000200000000000000000045000000000000000000458000000000020222222223CONSUMIDOR FINAL              000000000259900000000000000000000000000000000000000000000000000000000000000000000000000000000000000000000000000000000000PES00010000001000000000000000000000000
201907080060000200000000000000000046000000000000000000469600000000000026282780ARES WALTER MARCELINO         000000000429800000000000000000000000000000000000000000000000000000000000000000000000000000000000000000000000000000000000PES00010000001000000000000000000000000
201907080060000200000000000000000047000000000000000000479600000000000036875990Arias Nataly                  000000000719700000000000000000000000000000000000000000000000000000000000000000000000000000000000000000000000000000000000PES00010000001000000000000000000000000
201907090060000200000000000000000048000000000000000000489600000000000025335295hemotec05@hotmail.com         000000000099900000000000000000000000000000000000000000000000000000000000000000000000000000000000000000000000000000000000PES00010000001000000000000000000000000
201907100060000200000000000000000049000000000000000000499600000000000013736789Josefina Rivero               000000000269900000000000000000000000000000000000000000000000000000000000000000000000000000000000000000000000000000000000PES00010000001000000000000000000000000
201907100060000200000000000000000050000000000000000000508000000000020225132764Kees Milton                   000000000269900000000000000000000000000000000000000000000000000000000000000000000000000000000000000000000000000000000000PES00010000001000000000000000000000000
201907120060000200000000000000000051000000000000000000519600000000000034144544Mandarini Natalia             000000000269899000000000000000000000000000000000000000000000000000000000000000000000000000000000000000000000000000000000PES00010000001000000000000000000000000
201907120060000200000000000000000052000000000000000000529600000000000025674523Suca Roberto Carlos           000000000369899000000000000000000000000000000000000000000000000000000000000000000000000000000000000000000000000000000000PES00010000001000000000000000000000000
201907120060000200000000000000000053000000000000000000539600000000000035382184Villegas Braian Joel          000000000139899000000000000000000000000000000000000000000000000000000000000000000000000000000000000000000000000000000000PES00010000001000000000000000000000000
201907120060000200000000000000000054000000000000000000549600000000000033392714ALVAREZ PAMELA AIDA           000000000279900000000000000000000000000000000000000000000000000000000000000000000000000000000000000000000000000000000000PES00010000001000000000000000000000000
201907120060000200000000000000000055000000000000000000559600000000000032047230MENENDEZ CINTIA GABRIELA      000000000049800000000000000000000000000000000000000000000000000000000000000000000000000000000000000000000000000000000000PES00010000001000000000000000000000000
201907150060000200000000000000000056000000000000000000569600000000000026282780ARES WALTER MARCELINO         000000000189801000000000000000000000000000000000000000000000000000000000000000000000000000000000000000000000000000000000PES00010000001000000000000000000000000
201907150060000200000000000000000057000000000000000000579600000000000038805440fede_heaton@hotmail.com       000000000479800000000000000000000000000000000000000000000000000000000000000000000000000000000000000000000000000000000000PES00010000001000000000000000000000000
201907160060000200000000000000000058000000000000000000589600000000000022207540Juan ALejandro Sosa           000000000409800000000000000000000000000000000000000000000000000000000000000000000000000000000000000000000000000000000000PES00010000001000000000000000000000000
201907160060000200000000000000000059000000000000000000599600000000000032667329Celedon Mario Leona           000000000509801000000000000000000000000000000000000000000000000000000000000000000000000000000000000000000000000000000000PES00010000001000000000000000000000000
201907170060000200000000000000000060000000000000000000609600000000000023201974Javier Barria                 000000000399900000000000000000000000000000000000000000000000000000000000000000000000000000000000000000000000000000000000PES00010000001000000000000000000000000
201907200060000200000000000000000061000000000000000000619600000000000023097151Cristian Moron                000000000209900000000000000000000000000000000000000000000000000000000000000000000000000000000000000000000000000000000000PES00010000001000000000000000000000000
201907310060000200000000000000000062000000000000000000628000000000020222222223CONSUMIDOR FINAL              000000000209900000000000000000000000000000000000000000000000000000000000000000000000000000000000000000000000000000000000PES00010000001000000000000000000000000
201907310060000200000000000000000063000000000000000000638000000000020222222223CONSUMIDOR FINAL              000000000269900000000000000000000000000000000000000000000000000000000000000000000000000000000000000000000000000000000000PES00010000001000000000000000000000000
201907310060000200000000000000000064000000000000000000648000000000020222222223CONSUMIDOR FINAL              000000000289899000000000000000000000000000000000000000000000000000000000000000000000000000000000000000000000000000000000PES00010000001000000000000000000000000
201907310060000200000000000000000065000000000000000000658000000000020222222223CONSUMIDOR FINAL              000000000259900000000000000000000000000000000000000000000000000000000000000000000000000000000000000000000000000000000000PES00010000001000000000000000000000000
201907310060000200000000000000000066000000000000000000668000000000020222222223CONSUMIDOR FINAL              000000000259900000000000000000000000000000000000000000000000000000000000000000000000000000000000000000000000000000000000PES00010000001000000000000000000000000
201907310060000200000000000000000067000000000000000000678000000000020222222223CONSUMIDOR FINAL              000000000259900000000000000000000000000000000000000000000000000000000000000000000000000000000000000000000000000000000000PES00010000001000000000000000000000000
201907310060000200000000000000000068000000000000000000688000000000020222222223CONSUMIDOR FINAL              000000000179899000000000000000000000000000000000000000000000000000000000000000000000000000000000000000000000000000000000PES00010000001000000000000000000000000
201907310060000200000000000000000069000000000000000000698000000000020222222223CONSUMIDOR FINAL              000000000199899000000000000000000000000000000000000000000000000000000000000000000000000000000000000000000000000000000000PES00010000001000000000000000000000000
201907310060000200000000000000000070000000000000000000708000000000020222222223CONSUMIDOR FINAL              000000000399900000000000000000000000000000000000000000000000000000000000000000000000000000000000000000000000000000000000PES00010000001000000000000000000000000
201907310060000200000000000000000071000000000000000000718000000000020222222223CONSUMIDOR FINAL              000000000259900000000000000000000000000000000000000000000000000000000000000000000000000000000000000000000000000000000000PES00010000001000000000000000000000000
201907310060000200000000000000000072000000000000000000728000000000020222222223CONSUMIDOR FINAL              000000000159800000000000000000000000000000000000000000000000000000000000000000000000000000000000000000000000000000000000PES00010000001000000000000000000000000
201907310060000200000000000000000073000000000000000000738000000000020222222223CONSUMIDOR FINAL              000000000099900000000000000000000000000000000000000000000000000000000000000000000000000000000000000000000000000000000000PES00010000001000000000000000000000000
201907310060000200000000000000000074000000000000000000748000000000020222222223CONSUMIDOR FINAL              000000000399900000000000000000000000000000000000000000000000000000000000000000000000000000000000000000000000000000000000PES00010000001000000000000000000000000
201907310060000200000000000000000075000000000000000000758000000000020222222223CONSUMIDOR FINAL              000000000359900000000000000000000000000000000000000000000000000000000000000000000000000000000000000000000000000000000000PES00010000001000000000000000000000000
201907310060000200000000000000000076000000000000000000768000000000020222222223CONSUMIDOR FINAL              000000000099900000000000000000000000000000000000000000000000000000000000000000000000000000000000000000000000000000000000PES00010000001000000000000000000000000
201907310060000200000000000000000077000000000000000000778000000000020222222223CONSUMIDOR FINAL              000000000200000000000000000000000000000000000000000000000000000000000000000000000000000000000000000000000000000000000000PES00010000001000000000000000000000000
201907310060000200000000000000000078000000000000000000788000000000020222222223CONSUMIDOR FINAL              000000000209900000000000000000000000000000000000000000000000000000000000000000000000000000000000000000000000000000000000PES00010000001000000000000000000000000
201907310060000200000000000000000079000000000000000000798000000000020222222223CONSUMIDOR FINAL              000000000209900000000000000000000000000000000000000000000000000000000000000000000000000000000000000000000000000000000000PES00010000001000000000000000000000000
201907310060000200000000000000000080000000000000000000808000000000020222222223CONSUMIDOR FINAL              000000000249900000000000000000000000000000000000000000000000000000000000000000000000000000000000000000000000000000000000PES00010000001000000000000000000000000
201907310060000200000000000000000081000000000000000000818000000000020222222223CONSUMIDOR FINAL              000000000284899000000000000000000000000000000000000000000000000000000000000000000000000000000000000000000000000000000000PES00010000001000000000000000000000000
